:020000040001F9
:10800000703D0020158401001D8401001F840100C3
:108010002184010023840100258401000000000068
:1080200000000000000000000000000027840100A4
:1080300029840100000000002B8401002D84010030
:10804000618901002F840100099001002F84010043
:108050002F8401000000000009860100198A010038
:10806000E18F0100F58F01002F8401002F840100B2
:108070002F8401002F8401002F8401002F84010030
:108080002F840100B98901002F8401002F84010091
:10809000A98D01002F840100AD8D01002F84010006
:1080A0002F8401002F840100000000000000000068
:1080B0002F8401002F840100000000000000000058
:1080C00000000000000000000000000000000000B0
:1080D00000000000000000000000000000000000A0
:1080E0000000000000000000000000000000000090
:1080F0000000000000000000000000000000000080
:10810000000000000000000000000000000000006F
:10811000000000000000000000000000000000005F
:10812000000000000000000000000000000000004F
:10813000000000000000000000000000000000003F
:10814000000000000000000000000000000000002F
:10815000000000000000000000000000000000001F
:10816000000000000000000000000000000000000F
:1081700000000000000000000000000000000000FF
:1081800000000000000000000000000000000000EF
:1081900000000000000000000000000000000000DF
:1081A00000000000000000000000000000000000CF
:1081B00000000000000000000000000000000000BF
:1081C00000000000000000000000000000000000AF
:1081D000000000000000000000000000000000009F
:1081E000000000000000000000000000000000008F
:1081F000000000000000000000000000000000007F
:10820000DFF80CD000F0A2F900480047DDB401000F
:10821000703D002030B450E8012F93B2C48923444C
:108220008489A34228BF1B1B0489A34202BFBFF35A
:108230002F8F002007E0C3EA020340E80134002C3E
:10824000E9D14FF001000A6030BC704750E8012FBF
:10825000C2EA024240E801210029F7D1704730B458
:1082600050E8022F1FFAA2F3C488A34202BFBFF353
:108270002F8F00200DE0C48923448489A34228BFA6
:108280001B1BC2EA034340E80234002CE8D14FF044
:1082900001000A6030BC704750E8022FC2EA224257
:1082A00040E802210029F7D17047034653E8022F26
:1082B000D988B2EB324F4FF0000017BF92B241EABB
:1082C000014142EA014104E05A68B2EB324F08BF73
:1082D000012043E80212002AE8D1704730B4044676
:1082E00054E8000F0D4644E80053002BF8D1156008
:1082F00030BC704730B4044654E8000F40EA010532
:1083000044E80053002BF7D1156030BC704730B4FF
:10831000044654E8000F00EA010544E80053002B2E
:10832000F7D1156030BC704730B4044654E8000FF4
:1083300080EA010544E80053002BF7D1156030BCFA
:10834000704730B4044654E8000F00EB010544E8E0
:108350000053002BF7D1156030BC704730B4044691
:1083600054E8000FA0EB010544E80053002BF7D1BF
:10837000156030BC7047000030B4044654E8000F6C
:108380000D4644E80053002BF8D1156030BC70470F
:1083900030B4044654E8000F40EA010544E80053B5
:1083A000002BF7D1156030BC704730B4044654E858
:1083B000000F00EA010544E80053002BF7D11560D7
:1083C00030BC704730B4044654E8000F80EA010521
:1083D00044E80053002BF7D1156030BC704730B42F
:1083E000044654E8000F00EB010544E80053002B5D
:1083F000F7D1156030BC704730B4044654E8000F24
:10840000A0EB010544E80053002BF7D1156030BC08
:10841000704700000648804706480047FEE7FEE731
:10842000FEE7FEE7FEE7FEE7FEE7FEE7FEE7FEE724
:10843000B18D0100018201002DE9F05F05460020A9
:1084400092469B4688460646814640241BE02846C5
:1084500041464746224600F068F853465A46C01A3D
:10846000914110D311461846224600F04FF82D1ABC
:1084700067EB01084F4622460120002100F046F834
:1084800017EB00094E41201EA4F10104DFDC484631
:1084900031462A464346BDE8F09F00000048704739
:1084A00028E7010040EA01039B0703D009E008C95F
:1084B000121F08C0042AFAD203E011F8013B00F8A9
:1084C000013B521EF9D27047D2B201E000F8012BF5
:1084D000491EFBD270470022F6E710B513460A4644
:1084E00004461946FFF7F0FF204610BD421C10F865
:1084F000011B0029FBD1801A7047034611F8012B9C
:1085000000F8012B002AF9D118467047202A04DB15
:10851000203A00FA02F1002070479140C2F1200396
:1085200020FA03F3194390407047202A04DB203AD5
:1085300021FA02F00021704721FA02F3D040C2F183
:10854000200291400843194670470000064C074D31
:1085500006E0E06840F0010394E807009847103413
:10856000AC42F6D3FFF750FE64ED010084ED01004C
:1085700070B58C1810F8015B15F0070301D110F8E5
:10858000013B2A1106D110F8012B03E010F8016B12
:1085900001F8016B5B1EF9D12B0705D40023521E95
:1085A0000DD401F8013BFAE710F8013BCB1A921CFD
:1085B00003E013F8015B01F8015B521EF9D5A142FB
:1085C000D8D3002070BD70B5AF2000F025FD40204D
:1085D00000F022FD002404F1B000C0B200F01CFD48
:1085E000102000F019FD022000F016FD0025FF20EC
:1085F00000F029FD6D1CEDB2802DF8D3641CE4B2AF
:10860000082CE8D370BD00002DE9F04700268CB09F
:10861000DFF86091B0464FF4807501243746069626
:10862000284604F0A7F938B1D9F80403204203D052
:10863000284604F095F926432D1D64007F1CADB239
:10864000082FEDD34FF4BE74204604F093F948B1DF
:10865000204604F085F946F0004606AA01210020D4
:1086600004F06AF9444D16F0FF0F15D001270024DD
:1086700037420DD009EB8401D1F81005D1F810155F
:10868000C0F3042055F82420C1F3014102B1904702
:108690007F00641C082CEBD3002E67DA4FF0FF300C
:1086A000CDE9088000263446281910F8507F90F94B
:1086B000000027F0C008401C44D009A9404603F040
:1086C0003BF958B34FEA9719404602F069FB55F859
:1086D00020701FB1B9F1030F03D00FE0B9F1030F00
:1086E00030D108A84FEAD80208F00703815C4FF0A8
:1086F000010C0CFA03FC41EA0C0181544FF0A0413B
:1087000001EB8800D0F8000706A9C0F3014A4046F3
:1087100003F012F918B1BAF1020F03D012E0BAF166
:10872000030F0FD1B9F1030F08D1BAF1020F1BD01B
:108730000221404604F0D6F8761CF6B217B149463D
:108740004046B847641C042CAED3002E0ED06A46B7
:108750000121002004F0F0F806990098884205D025
:108760000690089809909DE70321E2E70CB0BDE868
:10877000F087000000600040EC2A002010B51220B5
:1087800004F0C8F8042003F017FA142004F0C2F82B
:10879000042003F011FA122004F0B5F8BDE81040EF
:1087A000042003F009BA10B5122004F0ACF804203C
:1087B00003F002FA142004F0ADF8042003F0FCF9F1
:1087C000122004F0A7F8BDE81040042003F0F4B92B
:1087D0001CB50024142004F096F8042003F0ECF9F2
:1087E000142004F097F80023122000931A4619462B
:1087F000019304F01DF8042003F0DEF94FF0A040CF
:1088000001E0641CE4B2D0F81015890C11F0010FDE
:1088100001D0FA2CF5D3FA2C03D106A1002000F0E8
:10882000EDF9142004F06FF8122004F040F8012054
:108830001CBD00004932435761697441636B206578
:1088400072726F72200D0A0010B5122004F02FF81A
:10885000142004F02CF8AE2000F0DEFBD52000F050
:10886000DBFBC12000F0D8FBA82000F0D5FB1F20C7
:1088700000F0D2FBAD2000F0CFFB002000F0CCFBDD
:10888000202000F0C9FB022000F0C6FBD32000F03E
:10889000C3FB002000F0C0FB402000F0BDFB8D209A
:1088A00000F0BAFB142000F0B7FBA02000F0B4FBEE
:1088B000C82000F0B1FBDA2000F0AEFB122000F07F
:1088C000ABFB812000F0A8FB532000F0A5FBD920D2
:1088D00000F0A2FB222000F09FFBDB2000F09CFBBD
:1088E000002000F099FBA42000F096FBA62000F0E9
:1088F00093FBBDE81040AF2000F08EBB00F01F02DC
:10890000012191404009800000F1E020C0F8801270
:10891000704700F01F02012191404009800000F1E2
:10892000E020C0F80011704700F01F0201219140C3
:108930004009800000F1E020C0F8001270474907AC
:10894000090E002806DA00F00F0000F1E02080F8A0
:10895000141D704700F1E02080F8001470470000FB
:108960002DE9F0414FF48077384603F085F8012473
:10897000104EA50748B1384603F085F80120C5F828
:1089800008037470002002F013FA4FF4827738461F
:1089900003F072F800280BD0384603F074F8022078
:1089A000C5F80803B470BDE8F041012002F000BA38
:1089B000BDE8F081D82A002007480021C0F8401106
:1089C000C0F84411C0F84811C0F84C11C0F80011AB
:1089D000C0F8041105F0E4BA0010014010B51020F1
:1089E00003F065FF102003F095FF012003F053F81A
:1089F000152003F05CFF012003F04DF8152003F073
:108A000082FF012003F047F8152003F083FFBDE843
:108A10001040012003F03FB82DE9FE434FF4827867
:108A2000404604F005FB4C4F00254C4C012600B39A
:108A3000404604F005FB94F82E0010B194F82F1076
:108A4000D1B18DF80050616801912189ADF808100D
:108A5000E26832B1218B618362602181E56010B1EF
:108A600002E0257400E03E6021686846884784F88B
:108A70002F5094F82E0060B34FF48077384604F0FE
:108A8000D7FA30B3384604F0DBFA628B94F82D1035
:108A90008A420AD9A2EB010080B260832289A2EB4C
:108AA0000000626802EB400005E007D1E06828B1F1
:108AB00084F82F60658304F0B3FA04E08A4202D19F
:108AC00084F82F606583404604F0BAFA2248001DFE
:108AD00006604FF48877384604F0AAFA48B1384661
:108AE00004F0AEFA257402208DF800002168684673
:108AF00088474FF48A77384604F09AFA28B1384606
:108B000004F09EFA2574BDE8FE834FF000484FF450
:108B10008C7967691DE000BFB7FA87F028FA00F189
:108B200009EB80058F43284604F082FA88B1284675
:108B300004F086FAA5F58C75E8088DF8040045F375
:108B40008000401C8DF800608DF8050021686846A3
:108B50008847002FE0D1D6E700700040782B002036
:108B600000F0AEBAF8B50D4B0646144618780D461F
:108B700008B900F0A5FA00208DF80000684600F062
:108B8000F1FF22462946304600F00AF804469DF8D7
:108B9000000001F00BF82046F8BD0000E83200208C
:108BA00070B50E46144900EB400001EBC0051446B9
:108BB000E86A183520B101280FD0022805D113E04A
:108BC000284600F0B1FAA04201D2002411E022466A
:108BD0003146284600F0CEFB0BE0284600F0A4FA10
:108BE000A042F4D20446F2E73146284600F095FB55
:108BF0000446204670BD0000E83200200FB408B5DE
:108C000004A900916A46039900F003F801B05DF8E9
:108C100014FB2DE9F04198B0064607A802904020C9
:108C20000025CDE90305CDE9055690460C4614F81C
:108C3000011B002973D0252908D002A800F04EFBA3
:108C400005980028F3DA18B0BDE8F0810020012172
:108C50002278232A1ED02B2A19D02D2A02D0302A7E
:108C600008D102E040F0010001E040F00200641C85
:108C70000029EDD100222178A1F130030A2B0CD27A
:108C800002EB820201EB4202303A641CF3E740F04F
:108C90000400ECE740F00800E9E70023CFB22E2FF4
:108CA0000BD114F8011FA1F130070A2F05D203EBF5
:108CB000830301EB4303303BF3E76C290DD06829B4
:108CC0000BD0702954D00BDC252916D0582931D06F
:108CD00063290CD0642913D114E014F8011FECE7C8
:108CE000732934D075291BD0782909D122E0D8F80E
:108CF0000000011DC8F80010017802A800F0EEFA8B
:108D0000641C9DE7D8F800100F1DC8F800700968B2
:108D1000CDE900200A2202A800F012FAF0E733E0C1
:108D2000D8F800100F1DC8F800700968CDE90020C0
:108D30000A2208E0D8F800100F1DC8F80070096872
:108D4000CDE90020102202A800F05EFAD8E7D8F89A
:108D50000000011DC8F80010076817F8011B002962
:108D6000CED002A800F0BAFA05980028F5DAC7E7D5
:108D7000D8F80000011DC8F8001001680820CDE9EE
:108D8000000503461022DEE7059800287FF75BAF59
:108D9000049820B1024607A93046FFF7E3FEDDE95B
:108DA0000410084405904EE705F048B804F0ECBA0A
:108DB000F0B57C487B4B012600781B1D1A1D31073E
:108DC00006280BD11C78240708D11478C4F30314A7
:108DD000032C06D0042C04D0052C02D0062807D082
:108DE00011E0B1F82443704DC4F304242C6002E078
:108DF0001C78240707D11478C4F30314032C02D180
:108E00006B4D6A4C6C67D1F83051D1F84442694FD0
:108E1000C4F342343C6006280CD11C78240709D1E5
:108E20001478C4F30314032C04D1634C276827F08F
:108E3000807727604FF080470024C7F80C41C7F8BF
:108E400010415C4F3F1F3C60062807D11F783F0749
:108E500004D11778C7F30317032F02D0062808D0D0
:108E60001DE0DFF850C103270CF1640CCCF8007052
:108E700007E01F783F0712D11778C7F30317032FB6
:108E80000DD1DFF838C10527CCF800704B4F78378B
:108E90003E604A4E083634603F24361F3460484CEA
:108EA0002468484E3460464C241D2468361D3460C6
:108EB000434C08342468361D3460414C0C3424681B
:108EC000361D34603E4C10342468361D34603C4CF2
:108ED00014342468361D3460394C18342468394EF3
:108EE00020363460364C1C342468361D3460344CD3
:108EF00020342468361D3460314C24342468361DF7
:108F000034602F4C28342468361D34602C4C2C34AB
:108F10002468361D34602A4C30342468294E40368B
:108F20003460274C34342468361D3460244C383483
:108F30002468361D3460224C3C342468361D34606D
:108F40001F4C40342468361D34601F4EFB243460AF
:108F5000062811D11C7824070ED11478C4F3031409
:108F6000032C03D0042C01D0052C05D1D1F8584294
:108F7000164E04F04F04346015480268D20702D040
:108F80006FF001020260062D08D1D1F834010628E5
:108F900004D11048016841F4806101600F490E4816
:108FA0000860F0BDE00F00F0403501400DF0ADBAB3
:108FB00000C007403C050040FCED00E010560040BA
:108FC0000404001020C5004018F50040E40E0040E5
:108FD000000400403C1700400090D003942600207D
:108FE00004220249024802F00CB90000602B002064
:108FF0000080004004220249024802F002B9000049
:109000006C2B0020009000400149024805F06FB829
:10901000442B00200020004010B50446FFF7AEFBB3
:10902000782000F027F8FFF7D3FB002000F022F8AB
:10903000FFF7CEFB204600F01DF8FFF7C9FBBDE8A7
:109040001040FFF7B0BB10B50446FFF797FB782040
:1090500000F010F8FFF7BCFB402000F00BF8FFF722
:10906000B7FB204600F006F8FFF7B2FBBDE8104062
:10907000FFF799BB70B50446082518E003F043FCE0
:10908000042002F099FD20064FF0120002D503F0F3
:1090900041FC01E003F037FC6006040E042002F0FE
:1090A0008BFD142003F036FC042002F085FD6D1EBC
:1090B000EDB24FF01400E1D2BDE8704003F023BCE4
:1090C00010B5124C02202061606111A0A06104F172
:1090D0007800E0614FF4007020620020A0626062BE
:1090E0000BA1A164E06204F51E71E1641021A0658A
:1090F000C4E91410E06509A1E01DFFF7FEF908A11D
:109100002046FFF7FAF92020A07110BDE8320020B8
:109110005465726D696E616C000000005254540019
:1091200053454747455200000269C1688A4203D847
:109130008068401A104400E0501A401E704700003A
:109140002DE9FC5F0E008146DDE90C47C6F1000009
:1091500098469346824600D40846012503E000BFA6
:1091600090FBFBF06D1C5845FADAA84500D945463E
:1091700024B1002E01DB780700D5641EB80702D5A4
:10918000B8F1000F0FD0F8070DD164B1A5420AD293
:1091900020214846641E00F0A1F8D9F80C000028F0
:1091A000F3DABDE8FC9FD9F80C000028F9DB002EAB
:1091B00002DA56462D2102E0780707D52B214846D2
:1091C00000F08CF8D9F80C000028EADB07F0030067
:1091D00002280FD1B8F1000F0CD15CB1A54209D221
:1091E00030214846641E00F079F8D9F80C000028B8
:1091F000F3DAD6E7CDE9004743465A4631464846BA
:1092000000F002F8CDE700002DE9F84F8246DDE9D5
:109210000A4B0126984691460D460846374602E01D
:10922000B0FBF9F07F1C4845FAD2B84500D9474653
:109230005FEACB7017D1B4B15FEA8B7002D5B8F199
:10924000000F02D0202000900BE03020FBE75046BA
:10925000641E009900F042F8DAF80C00002838DBB0
:109260000CB1A742F3D3DAF80C00002831DB00BFC1
:10927000B8F1010F02D9A8F1010803E0B5FBF6F03F
:10928000484502D306FB09F6F2E7DFF84C8000BF41
:10929000B5FBF6F000FB165518F80010504600F02C
:1092A0001DF8DAF80C00002803DBB6FBF9F6002EF7
:1092B000EED15FEACB700CD0002C0AD0A74208D2C6
:1092C00020215046641E00F009F8DAF80C0000284E
:1092D000F2DABDE8F88F0000F0E5010010B50446B1
:1092E000D4E90130421C934205D323681954A2608B
:1092F000E068401CE060D4E90102824209D12168A3
:109300002069FFF72FFCA168884203D04FF0FF309F
:10931000E06010BD0020A06010BD2DE9F047C468DA
:109320001746894606464FF000083069A04201D929
:10933000051B02E0B168201A0D1AB0686D1E001BF3
:10934000A84200D80546BD4200D33D4670682A4673
:1093500020444946FFF7A6F8B0687F1B2C44A84478
:10936000A944A04200D10024F460002FDDD1404682
:10937000BDE8F0872DE9F04104468846D4E90207AC
:10938000C51BE168606816460844B54206D94146E7
:10939000FFF788F8B819E060BDE8F0812A46414639
:1093A000FFF780F8761B08EB050132466068FFF78F
:1093B00079F8E660F0E702E008C8121F08C1002A49
:1093C000FAD170477047002001E001C1121F002A46
:1093D000FBD170470121202803DA81400548014074
:1093E00003E0402802DA2038814009B101207047AB
:1093F00000207047FC06FFBD082806D228B10128CE
:1094000003D0042801D0012070470020704710B518
:1094100001220221002001F0E5FA08B1072810D14D
:1094200007220221012001F0DDFA08B1072808D146
:1094300000210A22084601F0D5FA08B1072800D118
:10944000002010BD022001F081B9000070B5002499
:10945000064D06E06868012110F8340002F09AFC1D
:10946000641C28788442F5D3002070BDF0250020CC
:10947000F8B515460C460646052A01D20720F8BD68
:1094800002F06EFD18B902F03DFD0028F7D1104939
:1094900000204E600C70C1E902500E4D08610DE0D5
:1094A00006EBC4006968009181788DF8011000789E
:1094B000094A694602F0C0FC0028E0D1641EE4B20B
:1094C000EED2BDE8F840054A0021024800F09CBAFF
:1094D000F025002098E40100F1B0010059AF01002F
:1094E00003F0C0FC03F016FB0028FBD1104C012157
:1094F000208801EB00400FA103F004FC1048006835
:10950000C00700D000BE2088022101EB00400DA161
:1095100003F0F8FBBFF34F8F0948E43801680D4AA8
:1095200001F4E06111430160BFF34F8F00BFFDE71D
:1095300004270020466174616C206572726F7200AE
:10954000F0ED00E053797374656D20726573657496
:10955000000000000400FA050EB500210091CDE9DD
:1095600001106A4644F20100FFF7BAFF0EBD10B5C4
:109570008268C368934203D001F065FD002010BDEE
:10958000052010BD10B58268C3689A1A83889A4274
:1095900003D801F062FD002010BD042010BD0000C2
:1095A00030B542680B4C1379E15C0120FF290ED0E5
:1095B000FE290DD012684FF4A86505EB81015158C2
:1095C000054A52F82320914202D1FF20E0540020A6
:1095D00030BD000031260020B02D002003681B8B19
:1095E0009BB253436422B3FBF2F292B2AFF300801A
:1095F00070B50446006816460D4690F8212001EB30
:10960000450100EB8101022A01D0082070BD4968A4
:10961000B14205D1C16911B36068007988471EE085
:109620002046FFF7BDFF08B1112070BD61680D4AEB
:10963000FE200979505432462946204604F0CAF8E3
:109640002068C06958B16168064A02200979D21CB5
:1096500002EB410148550221606802F031FE002012
:1096600070BD0000312600202DE9F84F07688946BB
:10967000054601EB490897F821001E46924607EB84
:10968000880410B10820BDE8F88F4FF0000B324875
:10969000C4F804B0A672006800900A22296802EBA0
:1096A0008800085C40B100208DF8010069465046F2
:1096B00002F060FCB0B901E00120F5E747F828A00E
:1096C0004FF001084FF0A04108FA0AF016B1C1F8B6
:1096D0000C0501E0C1F808050027E019083002F088
:1096E00013FD08B10420CEE77F1CFFB2022FF4D394
:1096F000207A02F061FD607A02F05EFD206836B1EA
:1097000002F03CFB0646206802F0EAFC05E002F0AD
:10971000E7FC0646206802F031FB074649466868C8
:1097200002F0BFFD0146207A324602F023FD0221FD
:10973000686802F0B6FD0146607A3A4602F01AFD0A
:1097400084F80B806968054A097902EB410202F846
:1097500009B0002097E70000C4E50100342600208E
:109760002DE9F0470646D6E9007002F0BBFD022164
:10977000706802F09EFD97F8200002F01DFD0025A4
:109780004FF001084FF0A04905EB450007EB8004BE
:10979000E17A99B10A22316802EB8000085CA8B135
:1097A000207808FA00F2C9F80C25206802F03EFC87
:1097B000207A02F001FD607A02F0FEFC6D1CEDB231
:1097C000022DE1D387F82180BDE8F087217808FADF
:1097D00001F0C9F80805E8E72DE9F0470025DFF8B2
:1097E0006C9007680446A846626805EB450007EBE5
:1097F0008006137909EB430202F80580F17A71B112
:109800000A22216802EB8000085CE0B10021306888
:1098100002F030FC306802F01BFCC6F804806D1CBE
:10982000022DE1D36168094AFF200979D21E505404
:10983000606802F021FD606802F062FD022087F896
:109840002100BDE8F0870121E1E700003426002077
:109850002DE9F74F84B00E00044607D0256895F82F
:10986000210028B1082007B0BDE8F08F0B20FAE7EF
:1098700002F0F6FC18B1852801D00420F3E702F0CD
:109880006FFB20B902F03EFB08B10320EBE74E4826
:10989000DFF838A1002100784FF0010BC0F303106E
:1098A000032821D08AF800B0FF2285F8202000206C
:1098B00091464FF0FF3C00BF00EB400705EB8703EC
:1098C000401CD97283F8089083F80990C0B245F81B
:1098D00027C00228F0D305F1200002F015FC30B1BA
:1098E000204603F0F7FEC8E78AF80010DCE70027FF
:1098F00056F82720501C12D0F0193946037A20461A
:10990000FFF7B2FE5FEA000804D0204603F0E2FE53
:109910004046A8E7002239462046FFF769FE7F1C33
:10992000FFB2022FE4D3002009224FF480533169A3
:1099300001E04908401C994201D39042F9D39AF8BA
:10994000001009B100B90120214AD2E90112CDE984
:1099500001128DF8040060681E4A01A90079029086
:10996000606802F0F1FC070004D0204603F0B2FE6C
:10997000384678E7606831690068D0F810050E0154
:10998000C640AE61606802F077FCCDF800B05F467B
:10999000042332460221606802F0C0FC02216068A4
:1099A00002F087FC0698E86160680B49074A007975
:1099B000521C41F820406168097902F8019085F84D
:1099C000217000204FE70000E80F00F03026002053
:1099D000C4E5010079D70100BC2D002070B50468F2
:1099E000054694F82100022801D050B102E0284633
:1099F000FFF7B6FE284603F06DFE002084F8210034
:109A000070BD082070BD0000074B9B7823B12AB1C0
:109A100020B10068037C1BB1082070470720704705
:109A20004174426100207047C82B002070B503F0DC
:109A3000A1FF104800240B21047044700E4D81706A
:109A400014206C602C706C70FEF758FF07211420F6
:109A5000FEF775FF1420FEF75CFF0848046007213D
:109A60001120FEF76CFF0548001F0068A860002069
:109A700070BD0000C82B00200426002008150140FE
:109A80002DE9FC47DFF8789099F8023073B368B39A
:109A9000052902D20720BDE8FC87436933B3437C24
:109AA000012B25D0002704460025884616468DF850
:109AB0000050684600F056F801A804F027FCC8B131
:109AC000012101700F4944600968C0E90218C0E92A
:109AD00004769DF8040089F801009DF8000000F06C
:109AE00065F81420FEF720FF2846D4E70820D2E7C7
:109AF0000F46D8E704259DF8000000F057F8F3E77B
:109B0000C82B0020041501400649897839B130B1CD
:109B1000416921B100210174022104F01DBA08201D
:109B200070470000C82B002010B501460B48FFF716
:109B300029FD040010D10A4802F0D0FC60B90849A0
:109B400006480839FFF713FD30B9054901220839E5
:109B5000034802F071FC0446204610BDE42C0020AE
:109B60002026002030B5EFF3108172B60D4A9468BC
:109B7000012324B10370002900D162B630BD936087
:109B80004FF0E023D3F88051074C25401560C3F80F
:109B90008041D3F8844154605A17C3F884210022CD
:109BA0000270E8E7F42C0020FC06FFBD0B498A6830
:109BB000002A11D000280FD1EFF3108072B60B6885
:109BC0004FF0E022C2F800314B68C2F804310022A5
:109BD0008A60002800D162B670470000F42C002093
:109BE000400C01D000207047012070472DE9FC4750
:109BF000002517880646158090F82D0014468946E2
:109C000030B13A462146484600F008FB050009D12C
:109C1000B0784FF00C0A18B32088C846001DB8422F
:109C200002D95046BDE8FC87684679DF0028F9D1A3
:109C30002088032108F8001020881921401C80B2D8
:109C4000208008F800102088401C80B2208000EBA3
:109C50000801BDF8000004F0C6FA218808442080FD
:109C6000F0780222C8B1218896F9033001F1030C83
:109C70004846BC45D5D8425421884FF0010C491CB8
:109C800089B2218000F801C02188491C89B2218055
:109C900009F801302088401C20807068B8B1218804
:109CA00090F9003001F1030C4846BC45B9D8425444
:109CB00021880A22491C89B2218042542188491CEA
:109CC00089B2218009F801302088401C2080308929
:109CD00050B1CDE900474B460622022106F10800AB
:109CE00004F02CFB05009DD1308A50B1CDE900472E
:109CF0004B460722032106F1100004F01FFB05006C
:109D000090D1308B50B1CDE900474B46152214213C
:109D100006F1180004F012FB050083D1306A30B15F
:109D20003B462246494601F0ADF80500DBD1706A9A
:109D300030B13B462246494601F0A6FC0500D2D18F
:109D400096F82C0038B13B4622464946304603F08F
:109D50008BFF0500C7D1307838B13B4622464946D3
:109D6000304601F02CFD0500BDD128465AE7F0B57C
:109D70000C4693B01F210726ADF80010ADF8041073
:109D8000002750B1C17849070DD56A4602A9FFF7EF
:109D90002DFF002808D102AD02E00025ADF80070CB
:109DA0006CB1E07810B1304613B0F0BD01AA0AA939
:109DB0002046FFF71BFF0028F6D10AAA02E0002286
:109DC000ADF80470BDF80400C3B2BDF80000C1B224
:109DD000284672DFE8E780F82410704770B50D0060
:109DE000044653D0F4B3012020700026E6702022F0
:109DF00005F17801201DFEF755FB84F82460D5F8A5
:109E00009800C4F8CC00D5F89C00C4F8D0004FF6F8
:109E1000FF70A4F8C800C4F82560A4F8296084F88D
:109E20002B6004F130003C210646FEF754FB2878F5
:109E300084F83000A87884F83200E87884F8330099
:109E4000687884F83100D5E90401C4E91001D5E946
:109E50000201C4E90E01D5E90601C4E9120195F831
:109E60002D0000E012E084F85D00686AD8B104F1CA
:109E7000780104F16C0061676065696A0988018096
:109E8000686A616D80888880002008E00E2070BDBF
:109E9000696A22188968095C82F87810401C616D33
:109EA00089888142F4D8A86AE8B104F1A400C4F812
:109EB000A0000C38A065A96A89888180A86AA16D74
:109EC00000880880002006E0A96A22188968095CD9
:109ED00082F8A410401CA16D89888142F4D895F8BD
:109EE0002C0084F85C00286A48B104F1C4002065A5
:109EF000296A49884180286A216D0088088068683D
:109F000000B1606305F13C013046BDE87040FFF7E9
:109F10002EBF10B50288102A1AD0112A1FD01B2A72
:109F20001CD1007A0C46002818D1E0780521401C8D
:109F3000B0FBF1F201FB1201204600F055F80028B9
:109F40000CD0D4F8D010002908D0BDE81040084744
:109F5000C27B012A02D18088A1F8C80010BD0C463E
:109F6000002184F8D4108088B4F8C8108842F5D154
:109F700020790028F2D10121DEE710B50C46022835
:109F800001D0032811D1607800280ED00020607025
:109F9000E178204600F028F8002806D0D4F8D01048
:109FA000002902D0BDE81040084710BD10B5044696
:109FB00074DF012084F8D400002084F8D600062045
:109FC00084F83300002104F13000FFF7D0FE0028B0
:109FD00009D1E178204600F007F818B1D4F8D01084
:109FE00001B18847002010BD2DE9FF4704460078E5
:109FF0000F4638B1E770002002F084FB012628B13B
:10A000006670D2E0082004B0BDE8F0870025C4F8EF
:10A010002550A4F8295084F82B50A07910B1E0788D
:10A02000012806D0E07970B1E078012801D002283B
:10A0300009D1D4F8CC1021B184F82C6008208847CD
:10A0400001E084F82C5004F1260100200A5C0AB1DA
:10A05000304603E0401C0628F8D300204FF00208E9
:10A060004FF0030A4FF00409012F06D0022F09D048
:10A07000032F0CD0042F12D10DE0A17911B108B13A
:10A0800030460DE0E17911B108B1404608E0207A90
:10A0900008B1504604E0607A08B1484600E028461E
:10A0A000E070D4F8CC1041B1032801D0042804D1C9
:10A0B000607910B194F8D400A8B184F8D550009517
:10A0C0000295019503958DF800508DF80850E178C0
:10A0D00004F1250004F13002052958D2DFE801F02F
:10A0E000670A131F3B0084F8D65084F8D560072018
:10A0F0008847E4E7A67001908DF80060ADF80C5039
:10A10000ADF80A5043E084F8028001908DF80060B9
:10A11000208AADF80C00A089ADF80A0037E0A08ACB
:10A12000ADF80A00208BADF80C00607980B194F88E
:10A13000D40068B994F8D60050B18DF8088084F83E
:10A14000339000211046FFF712FE00BB05211AE0F4
:10A1500084F802A01BE0A08BADF80A00208CADF8BB
:10A160000C00607988B194F8D40070B994F8D600E6
:10A1700058B18DF8088084F8339000211046FFF71D
:10A18000F6FD20B90621A17001E084F80290E07884
:10A1900030B194F82410684673DF00287FF433AFA1
:10A1A000D4F8CC1009B1A078884700202BE7A5701F
:10A1B000F6E7000070B5040012D001461C221448D6
:10A1C000FEF770F91248134D0560206850B17ADF30
:10A1D000002806D12068016829604068686005E0B1
:10A1E0000E2070BD0B487BDF0028FAD108484FF6DF
:10A1F000FF711438084A20F8041B054934390160FE
:10A200000021FFF701FC0028EBD0032070BD000007
:10A21000042A0020E0250020A5E201007CB50546C7
:10A2200008880C460930904201D90C207CBD684654
:10A230006DDF0028FAD121880820685420881B216E
:10A24000401C80B2208029542088401C80B220808D
:10A250002844DDF801100160BDF8051081802088D8
:10A26000801D80B220809DF80010490800D0012197
:10A2700029542088401C208000207CBDF0B5414E30
:10A28000044602883088032789B007EB00403EA1CE
:10A2900002F03CFD2088444D212833D00DDC0128FC
:10A2A00049D0102815D0112823D013281FD10023FE
:10A2B0001A46852168887FDF32E03B2837D0512855
:10A2C0003DD0522827D0562811D1A088132176DFFF
:10A2D00026E0308835A107EB004002F013FD07208F
:10A2E00000F0A2FB08B1FFF737F9A088688009B039
:10A2F000F0BD308830A107EB004002F003FD4FF6BF
:10A30000FF70F3E700200090A08869468FDF34E0FB
:10A31000FFF722F9EBE700231A4619466888A9DF00
:10A320000028E4D009B0BDE8F040FFF715B9A088D7
:10A33000132176DFF4E7A088002166DFF0E7102222
:10A34000A11D04A8FEF7AEF89DF810100029CED08C
:10A350009DF81800042803D0062801D00528C6D18E
:10A3600002290DD05FF001008DF800004FF4C1709C
:10A37000ADF80400A0886946A8DF0028C8D1B6E778
:10A380000220F1E704270020705F626C655F65764C
:10A39000742D3E6865616465722E6576745F6964CC
:10A3A000203D202564000000B8250020436F6E6E1C
:10A3B0006563746564000000446973636F6E6E6565
:10A3C000637465640000000010B51A4C0188606871
:10A3D00010290ED011292BD1401E606028D1FFF723
:10A3E00016F8002824D02168002921D0BDE81040AB
:10A3F0000847D0B900210122084600F0F3FA08B15D
:10A4000007280FD107220221012000F0EBFA08B142
:10A41000072807D104220221002000F0E3FA20B12E
:10A42000072802D0216801B188476068401C60603D
:10A4300010BD0000D82500202DE9F04701883B4ED3
:10A4400040F2F3194FF6FF7510291BD011293ED0A9
:10A45000122954D0502946D1C188F289841D9142D5
:10A4600041D1618902293ED18688304600F06CFED8
:10A47000050038D004F10C0000F04EF9A8B32946CD
:10A4800030464EE0C17B8788044601292BD1A8467F
:10A49000284600F059FE050017D02F8000202872B2
:10A4A000234843464A460168C5F80A104068C5F883
:10A4B0000E0004F1100105F10A0000F0D4FE6872EC
:10A4C000F08900280FD129462AE0042013E0808873
:10A4D00000F03AFE040006D06068FFF715FB08B1F3
:10A4E00003F0A4FB2580BDE8F087FFE76868FFF76D
:10A4F0000BFB0028F7D0BDE8F04703F097BB878837
:10A500000646384600F020FE0400ECD02B464A46B2
:10A5100006F1080104F10A0000F0A5FE6072214670
:10A520003846BDE8F04700F0F3BC0000042A0020E4
:10A53000E02500202DE9F04705460388394801222F
:10A54000A4B000F1480A102B09D0112B48D01A2BC7
:10A5500064D1297AB2EB111F47D2012346E0D0E93A
:10A5600011218A430446011D12A803F032FB442244
:10A5700012A901A8FDF796FFDFF8A890002637463C
:10A5800009F144090DF104080AE000BF08EB460098
:10A590001D2283884946201D009703F0DFFA761CB0
:10A5A0000198B042F2D8606CAD88C04303F0F8FA6D
:10A5B000A0F57F41FF390DD004EB400001238580D9
:10A5C0002A465146201D03F029FB01232A4649460D
:10A5D000201D1EE024B00420BDE8F047FEF7BCBFFC
:10A5E0000023AA885146001D13E000230D490446AC
:10A5F000AA885031001D03F011FB287A0221B1EB2B
:10A60000101F01D2012300E000230649AA8854311B
:10A61000201D24B0BDE8F04703F000BB24B0BDE826
:10A62000F0870000202A002030B5174B0D460400AB
:10A630000FCB85B08DE80F0023D015B34FF6FF7018
:10A64000A0822868A0610020A0752146684662DFCC
:10A65000002814D120788DF812000120ADF81000E8
:10A66000A21C04A9A0DF002809D12946204603F036
:10A670009FF9002803D12946204603F0CBFC05B002
:10A6800030BD0E20FBE7000084E401007FB5002907
:10A6900017D0002815D00288102A0DD0112A0DD00D
:10A6A000502A0FD0572A0CD11A4B1868D3E902232D
:10A6B0008DE80F0089692AE0808801E04FF6FF707D
:10A6C00088827FBD01910C46821DC38809890025BF
:10A6D00012308B4202D1518902290CD0A1898B42C0
:10A6E000EFD1A1690029ECD002905089ADF80C009F
:10A6F0008DF800500AE000F00FF818B10120A075A5
:10A70000022001E0A57503208DF80000A1696846CC
:10A7100088477FBD74E40100007800F001007047B5
:10A720000149085C7047000034E401000649095CF7
:10A730004FF0A040D0F81005C84010F0010000D044
:10A74000012080F00100704734E4010007490B5CF0
:10A750004FF0A041D1F804250120984020EA0203DF
:10A76000C1F808351040C1F80C05704730E401000D
:10A770000249085C012102F0D4B8000030E4010075
:10A780000249085C002102F0CCB8000030E401006E
:10A790000649095C4FF0A040D0F80405C84010F00D
:10A7A000010000D0012080F00100704730E401007A
:10A7B0007CB50024084E25460122305D009500231B
:10A7C0001146019502F046F8641C042CF4D3BDE850
:10A7D0007C4000F003B8000030E4010010B5002414
:10A7E0002046FFF7C5FF641C042CF9D310BD10B53B
:10A7F00000242046FFF7C4FF641C042CF9D310BDCD
:10A8000010B50246064B4FF0FF3000215C5C9442CD
:10A8100001D1084610BD491C0429F7D310BD000022
:10A8200034E4010070B50D4E0C004FF000053060AF
:10A830000BD0012000F06CF808B1022004E00020E9
:10A8400000F066F800B10B202070706810B9FEF7B8
:10A85000DEFD054600F0A0FF284670BDD82500208B
:10A8600010B5002000F012FA08B1062806D1012028
:10A8700000F00CFA08B1062800D1002010BD00003D
:10A880002DE9F0470D468146FFF7BAFF044604283C
:10A8900036D2DFF874801B481C4EA8F10C0725B394
:10A8A000012D0ED0022D2BD104EB4400304445780D
:10A8B000002D25D0B968002922D02846BDE8F047F0
:10A8C000084704EB4401755C0E44717849B10E4AA7
:10A8D0004FF40041093A8068FFF7D2F808B987F8C9
:10A8E0000390B17808F80410E2E78068FFF70CF9EC
:10A8F00004EB4401314418F804008D78A842D7D005
:10A90000BDE8F08738E40100D4250020A429002008
:10A91000FFF70CBF10B501460F2838D00BDC1E48DE
:10A920000429408815D007291CD00A2923D1BDE865
:10A93000104003F0DDB910291ED0162929D01728A0
:10A9400019D116A10020FEF759F9BDE8104002F018
:10A95000B9BF132176DF0CE000280CD0BDE8104011
:10A96000FEF7FABDA0F57F41FF3904D10F48FFF78C
:10A970001DFB0828F0D110BD0DA10020FEF73EF907
:10A980004FF0A0414FF48040C1F80C0510BD0EA15E
:10A99000D8E711A1D6E70000B82500204B45592083
:10A9A00052454C454153450D0A00000068280020DF
:10A9B000636C656172204C444F5F454E41424C458B
:10A9C0005F4350550D0A00004B45593220505553F6
:10A9D0004845440D0A0000004B4559205055534846
:10A9E0000D0A000070B50023042810D20D4D00EBB5
:10A9F0004004012A02D101290CD00022094E00EBAB
:10AA00004000304461B1012906D0022906D0072355
:10AA1000184670BD0E30C2B22A55F9E74270F7E70A
:10AA20008270F5E7A4290020044A0146002012792B
:10AA3000D20702D0084600F04DB87047C825002064
:10AA400070B506461E480024C0E90161B00720D554
:10AA50000025012211462846FFF7C4FF6D1C04465D
:10AA6000042D02D2002CF4D013E094B940F26662B7
:10AA700004211448FEF7FCFC04000AD1FEF7E6FCB2
:10AA8000040006D10F48104A0021001FFEF7BCFF4A
:10AA90000446F00701D0FFF78BFE74B909480B4A52
:10AAA00000210C38FEF7B0FF040006D10548084A23
:10AAB00001210838FEF7A8FF0446204670BD0000BB
:10AAC000C825002044E4010035AD010005B30100B4
:10AAD000459401002DE9F05F6A4C05460026607838
:10AAE000B34618B184F801B000F0F4FB664F4FF4A0
:10AAF0007A694FF4C87A4FF00108182D62D2DFE866
:10AB000005F0AC0C0C31404D62676B746B74BE7D0C
:10AB10007D7D7D7DACAFB2B5BEBE0020FFF738FEB7
:10AB200000284FF0000008D0FFF722FE022D02D1CE
:10AB30004FF4E16008E0484606E0FFF721FE022DF1
:10AB400001D1C82000E05046410CC0034FF4FA7216
:10AB5000801841F10001257052000023FDF76CFCC4
:10AB600001462AE00020FFF713FE00284FF0000006
:10AB700004D0FFF7FDFD4FF44870E5E7FFF700FE56
:10AB8000DFE70020FFF704FE00284FF0000002D0AE
:10AB9000FFF7EEFDCFE7FFF7F3FDD4E70020FFF767
:10ABA000F7FD00284FF0000002D0FFF7E1FD01E0C3
:10ABB000FFF7E6FD257041F69A1100223868FEF78E
:10ABC0005FFF064646E00020FFF7C0FD257008E065
:10ABD000002051E025703DE084F801800120FFF75E
:10ABE000B5FD002240F6CD41E8E784F80180012060
:10ABF000FFF7ACFD00224FF48041DFE77868FEF7F5
:10AC000083FF0646D5F1110000D02EB10220FFF7D8
:10AC1000AFFD84F802B01DE0012816D980B2C8212A
:10AC20004843C117C90341EA5041C0034FF4FA72C7
:10AC3000801841F1000152000023FDF7FDFB0146A1
:10AC400000227868FEF71CFF06460220FFF798FDF9
:10AC500084F802803046BDE8F09F00F03BFBB9E786
:10AC600000F038FBB4E700F035FB04E000F032FB05
:10AC70000020FFF785FD0120FFF782FDAAE7FFF71F
:10AC8000B6FDA7E7C825002038E4010010B5FFF79E
:10AC900047FD032101F015FE002010BDF8B5871C0B
:10ACA00000208DF800000E4601256846FEF75AFF89
:10ACB000124C20683060D4E90001401AA168091ADA
:10ACC000BE1C06E000F0C0FBD4E90001401AA168F8
:10ACD000091A491C8E42F5D8A1682068084004EB87
:10ACE0008000C16841F00301C160206838442060E1
:10ACF0009DF80000FEF75AFF2846F8BDC82E002038
:10AD000030B482680468531C8360A154D0E90112F6
:10AD10008A4202D330BC01F0FCBB30BC704700005B
:10AD2000034803C8814201D10120704700207047C9
:10AD3000C82E002000780221FFF7A2BD05494FF080
:10AD4000FF32082841F8202002D3084480F8482028
:10AD500070470000EC2A0020F0B54FF0FF3512B12B
:10AD60000023082601E008230C260C4C05E000BF58
:10AD700054F823707F1C04D05B1CB342F8D32846E0
:10AD8000F0BD26185DB286F8305044F82310002A32
:10AD9000F5D1E11881F84800F1E70000EC2A002025
:10ADA0000249084490F9300070470000EC2A002066
:10ADB00070B5084C050009D010342168002907D06F
:10ADC00008682060496828468847F6E70834F4E7B1
:10ADD00070BD0000D82A00202DE9F05F26484168A8
:10ADE000F1B3DFF898B00E688146DBF80040876861
:10ADF0008078E11B21F07F45ED1CB0B9DFF8808041
:10AE00004FF48030C8F84403C8F804031120FDF75C
:10AE100075FD1120FDF77DFD4FF0010AC8F800A077
:10AE20002F2000F00FFF89F802A0B54200D235466E
:10AE3000124BE8193C3320F07F401860DBF800101B
:10AE40005A46091B21F07F41001B20F07F40C91C9E
:10AE500081420FD9106818602F2000F0F3FE00E047
:10AE600004E0BDE8F05F1120FDF75EBDBDE8F05FD6
:10AE700002F080BDBDE8F09F0426002004150140CB
:10AE8000001001402DE9F04117880646B81D144610
:10AE90000D46984202D90C20BDE8F0813188072286
:10AEA00006290AD34FF4486C4FF6FF73614501D968
:10AEB000994202D17088062801D21046ECE760451D
:10AEC00001D99842F9D1994203D0984201D08142E8
:10AED000F3D80520E85520881221401C80B220803C
:10AEE00029542088401C80B220804119308803F00A
:10AEF0007AF92188084480B220804119708803F0D3
:10AF000072F92188084420800020C5E7FEF724BBA1
:10AF100038B54A7A0F4B62B100220A72596900298A
:10AF200006D001228DF80020ADF80200684688475F
:10AF300038BD0A7A62B19B684C68024619462046C1
:10AF4000FEF79EFD0028F3D0BDE8384002F06EBE4B
:10AF50005B68F1E7042A00202DE9F0410026012575
:10AF6000144C22E06068226900EBC607387805FAC5
:10AF700000F1114217D08A43226100F0B9FF024666
:10AF80003878E36805FA00F1194002FA00F39942B3
:10AF900009D17978012901D0012100E00021514037
:10AFA0007A6802B19047761CF6B220788642D9D3EF
:10AFB000BDE8F081F02500200E4910B50A784C78E4
:10AFC0000023A24212D0521CD2B20A70022A00D12F
:10AFD0000B70084A0B780C3252F823200260886804
:10AFE000104420F07F408860012010BD03600020E5
:10AFF00010BD00000426002030B50446006885B06E
:10B000000D46806800281CD014216846FDF763FABD
:10B010000195A0680490207910B101280DD104E0B9
:10B0200001208DF80000206904E002208DF8000066
:10B03000E0680003029060690390206881686846B8
:10B04000884705B030BD826883881A4003689A5CDF
:10B050000A708168491C81607047C26883881A4001
:10B0600003689954C168491CC16070470B484A88FD
:10B0700043889A4211D10A88A2F52063773B0CD10C
:10B080008988C91E8AB28280054803211346008838
:10B0900001EB004003A101F040BE7047B82500203D
:10B0A0000427002044617461206C656E2069732060
:10B0B00073657420746F2030782558282564290022
:10B0C00010B50949094800F04BFC08B1FEF744FAF5
:10B0D0004021064800F038FC002803D0BDE81040AD
:10B0E000FEF73ABA10BD00006DB0010058280020EC
:10B0F0002DE9F041124E07460125BD403068FEF7AC
:10B1000003FD00280DD10F4C2069284207D1384695
:10B1100000F0EEFE0028E06805D0284304E0A843D4
:10B120002061BDE8F081A843E060206928432061E8
:10B13000A1683068BDE8F0410022FEF7A1BC000024
:10B1400098E40100F02500200146034802888A4265
:10B1500000D0002070470000F02900202DE9FC5F9E
:10B160000E008346DDE90C47C6F100009846924682
:10B17000814600D40846012503E000BF90FBFAF0A9
:10B180006D1C5045FADAA84500D9454624B1002E79
:10B1900001DB780700D5641EB80702D5B8F1000FAF
:10B1A0000AD0F80708D13CB1A54205D22021584663
:10B1B000641EFFF7A5FDF6E7002E02DA4E462D21AC
:10B1C00002E0780703D52B215846FFF799FD07F0D9
:10B1D000030002280BD1B8F1000F08D13CB1A54201
:10B1E00005D230215846641EFFF78AFDF6E7CDE907
:10B1F0000047434652463146584602F0F9FFBDE843
:10B20000FC9F2DE9F84300251646884604462F4644
:10B2100014E04FF4A07000EB85004FF48031225809
:10B22000A9404AB1D4F804230A4205D02750215836
:10B230000091D8E9002190476D1CEDB2B542E8D3EA
:10B24000BDE8F8830121814003484068014201D0F4
:10B250000120704700207047E825002001460120AA
:10B260008840FEF7BDBCF0B58488A518944200D88C
:10B270002246A41AC288D6189A4200D81346D21A77
:10B280004B880788BB420CD34088834209D8888802
:10B29000A04206D3A84204D8C888904201D3B04245
:10B2A00001D90020F0BD0120F0BD01218140C8037B
:10B2B00000D0012070470000054A03214FF0A04054
:10B2C000C2F800174FF48041C0F80815704700001D
:10B2D000380000500A4810B5807860B1002401E0C1
:10B2E000022C06D02046FFF743FA641C042CF7D347
:10B2F00010BD0324F6E7BDE81040FFF76FBA000069
:10B30000C825002003480179C90702D00078FFF75B
:10B31000E1BB7047C82500200649012008600648A7
:10B320000168C1F300410029FAD104490020887066
:10B33000704700000C00004018040040D82A00208C
:10B34000F72101801721418000210171417170476F
:10B350002DE9F047394E002780463D46DFF8E09062
:10B36000D6F804A057E003D00446D0F81C8035E09E
:10B3700099F8002002EB4201521CD2B289F8002059
:10B3800009EBC10199F80230091D9A4201D189F8EF
:10B39000005048680A780446012A12D0022A02D0D6
:10B3A000032A3BD108E002F0A7FD00B10127257474
:10B3B00034E00574C06900E070680028F9D170605D
:10B3C0002CE0207C50BB88686060C868A060086979
:10B3D000E0604869A061F07800B165606268B168BA
:10B3E000184B501A20F07F40984202D2A1680844BE
:10B3F00006E0881AA16820F07F40814202D9081A2D
:10B40000206000E0256065600120A5602074204672
:10B41000E56102F053FDB8F10000A4D199F80010E5
:10B4200099F801008142A3D117B97168514502D042
:10B430000120BDE8F0870020FBE700000426002083
:10B44000C82B0020FFFF7F0070B588B0214800F0B6
:10B450001AFA2048001F064600F015FA1E4DD5E9DD
:10B46000014105E0C0F3891202EB9050641C0444D2
:10B4700004EA010005EB8000C0688207F2D00020DA
:10B480000DF1080204EA010305EB8303641CDB6889
:10B4900042F82030401C0228F4D3029800F0030048
:10B4A000012808D002280AD10298032101EB90500C
:10B4B00004EB900403E00298C0F383100444304688
:10B4C000002101AAFCF771FF002800D06C6008B0D1
:10B4D00070BD0000E0320020C82E0020A8B0FFF7A9
:10B4E000EBFEFEF7A3FA08B1FEF736F8002001F0F4
:10B4F00073FC08B1FEF730F801F0FEFA544903205E
:10B50000FFF79EFA08B1FEF727F869460020FFF71B
:10B5100089F908B1FEF720F801F000FF08B1FEF745
:10B520001BF8002469460120009401F09DFD08B13C
:10B53000FEF712F8684601F03FFE08B1FEF70CF87E
:10B540009DF8080043A120F00F00401C20F0F000FF
:10B5500010308DF808000B2202A87CDF08B1FDF73F
:10B56000FBFF00941020ADF800003C200194ADF8E2
:10B570000200ADF804404FF4C870ADF8060068460C
:10B580007ADF08B1FDF7E8FFFFF79AFD3448009035
:10B5900069463448FFF748F808B1FDF7DDFFA02100
:10B5A0006846FCF798FF02208DF800008DF80240F5
:10B5B00005208DF803000120ADF84C008DF87C00CB
:10B5C0004020294922901491B420239027482690A6
:10B5D000244869462C30FEF701FC08B1FDF7BCFF9A
:10B5E000204801212C30FEF7F6FB1C216846FCF7B1
:10B5F00072FF4FF42030CDE900404FF470200290EC
:10B6000003208DF80C001A4805901A480690ADF8F2
:10B610000E408DF810406846FEF7CCFD08B1FDF7EE
:10B620009BFF104803212C30FEF7DEFC08B1FDF72C
:10B6300093FFFDF7D3F9FDF707F9FCF7C4FF0E4CB4
:10B640000EA10020FDF7DAFA204600F029FAF7E70C
:10B6500015A901004E6F726469635F554152540031
:10B66000C5D401003C280020BE25002055D501008E
:10B6700079D501000DAF0100A08601006D61696EF2
:10B68000206C6F6F700D0A0070B5144682880E46EC
:10B6900005462088111D0144921C994201D8FE2ABA
:10B6A00001D90C2070BD521C32542088FF21401C4F
:10B6B00080B2208031542088401C80B220808119C3
:10B6C000288802F090FD2188084480B22080AA8852
:10B6D00042B1A96841B13044FCF7E4FE2088A98852
:10B6E00008442080002070BD072070BD2DE9F04780
:10B6F000C7880446181D16468946B0FBF7F1B0FB13
:10B70000F7F207FB12009A193A44D21CB2FBF7F287
:10B71000DDF820A001E02468491E0029FBD13D1A74
:10B720008846B54216D818E0BAF1000F05D02118A6
:10B7300009EB08002A46091D04E0204409EB080132
:10B740002A46001DFCF7AEFE00202468761BA844A4
:10B75000B74201D9354600E03D46002EE4D1BDE8B0
:10B76000F087000030B5024669B101F063FB0021AB
:10B77000084C0BE001EB410304EB830315685B8885
:10B78000AB4202D11160002030BD491C8142F1D38F
:10B79000052030BD9826002010B50021172208464C
:10B7A000FFF720F908B1072808D11622012100204F
:10B7B000FFF718F908B1072800D1002010BDF8B52F
:10B7C0000E46017814460546012901D1687830B14A
:10B7D0002088821C9A422DD8012902D006E0072039
:10B7E000F8BD69780144891C994223D8181A801E33
:10B7F00087B2ADF800702188B01C084469467DDF2F
:10B800000028EDD12878022805D1BDF80010B942F2
:10B8100001D809210AE00821012805D16878B84239
:10B8200002D8ADF8000001E0ADF80070BDF80000EE
:10B83000FE2801D90C20F8BD2288401CB054208875
:10B84000401C80B2208031542088401C2080BDF8EC
:10B850000010084420800020F8BD10B50A884988EF
:10B860008A4203D1FCF718FD012010BD002010BD55
:10B8700070B50C460546FCF7F2FC002802D0618842
:10B880002868084470BD08B501216A46FCF780FDB0
:10B89000009808BD38B5044600258DF8005068466C
:10B8A000FEF760F921686268086890420ED9401E70
:10B8B00008600178238AE26801FB0325227A216867
:10B8C000101AC0B20A79824200D208719DF80000B5
:10B8D000FEF76CF9284638BD38B5054600208DF8CE
:10B8E00000000C466846FEF73DF9E868298A201AF0
:10B8F000B0FBF1F12A681068431C136001709DF8D9
:10B900000000FEF753F938BD10B530B1017A426836
:10B910000368891AC9B21A6006E00E2010BD0368D8
:10B920001A68541C1C601170491EC9B2F7D2006815
:10B9300000210171084610BDC20800F00703012074
:10B94000895C98400840704728B1A1F11702E12AAC
:10B9500003D3072070470E207047018000207047F6
:10B9600010B560B1C160F72120F8021B20F8021B5E
:10B97000FB2100F8021BFFF7E3FC002010BD0E20A6
:10B9800010BD00002DE9FC4182880C46002A51D1EF
:10B9900001880126354F0025102906D0112925D010
:10B9A0003A2927D055294BD146E0C07B04F1060E39
:10B9B000012802D12088AEF80000BEF80010BEF8C1
:10B9C000020081423CD910469EDF020008D0112AB5
:10B9D00009D03888264906EB004001F097F92FE09E
:10B9E0008EF805602CE08EF804602CE0A01DFFF7B7
:10B9F000A7FC25E02346408934F8061F814200D881
:10BA000008466080172800D217206080D86878B177
:10BA1000607968B11749D1E90001CDE90001ADF8BD
:10BA200002206088ADF80400DA686946184690473D
:10BA300065712571BDE8FC810146204601F0AAFD33
:10BA4000A07A0028F6D02846E1889EDF02000AD0BE
:10BA5000112AEFD0388802B006EB0040BDE8F04173
:10BA6000034901F053B9A572E672E3E79826002076
:10BA70002CE7010064E4010000F180400068002828
:10BA800000D00120704708B500F18040002101601E
:10BA90000068009008BD4FF47A71484300F08CB8FC
:10BAA00000283ED01F49204A096800BF00BF00BFE0
:10BAB00000BF00BF00BF00BF00BF91422FD000BF3A
:10BAC00000BF00BF00BF00BF00BF00BF00BF00BF7E
:10BAD00000BF00BF00BF00BF00BF00BF00BF00BF6E
:10BAE00000BF00BF00BF00BF00BF00BF00BF00BF5E
:10BAF00000BF00BF00BF00BF00BF00BF00BF00BF4E
:10BB000000BF00BF00BF00BF00BF00BF00BF00BF3D
:10BB100000BF00BF00BF00BF00BF00BF00BF0138B3
:10BB2000C3D17047942600200024F40000283ED0A2
:10BB30001F49204A096800BF00BF00BF00BF00BF07
:10BB400000BF00BF00BF91422FD000BF00BF00BFA9
:10BB500000BF00BF00BF00BF00BF00BF00BF00BFED
:10BB600000BF00BF00BF00BF00BF00BF00BF00BFDD
:10BB700000BF00BF00BF00BF00BF00BF00BF00BFCD
:10BB800000BF00BF00BF00BF00BF00BF00BF00BFBD
:10BB900000BF00BF00BF00BF00BF00BF00BF00BFAD
:10BBA00000BF00BF00BF00BF00BF0138C3D1704756
:10BBB000942600200024F40000283ED01F49204A8B
:10BBC000096800BF00BF00BF00BF00BF00BF00BFCB
:10BBD00000BF91422FD000BF00BF00BF00BF00BF19
:10BBE00000BF00BF00BF00BF00BF00BF00BF00BF5D
:10BBF00000BF00BF00BF00BF00BF00BF00BF00BF4D
:10BC000000BF00BF00BF00BF00BF00BF00BF00BF3C
:10BC100000BF00BF00BF00BF00BF00BF00BF00BF2C
:10BC200000BF00BF00BF00BF00BF00BF00BF00BF1C
:10BC300000BF00BF00BF0138C3D170479426002069
:10BC40000024F40000283ED01F49204A096800BFA4
:10BC500000BF00BF00BF00BF00BF00BF00BF9142D8
:10BC60002FD000BF00BF00BF00BF00BF00BF00BF9C
:10BC700000BF00BF00BF00BF00BF00BF00BF00BFCC
:10BC800000BF00BF00BF00BF00BF00BF00BF00BFBC
:10BC900000BF00BF00BF00BF00BF00BF00BF00BFAC
:10BCA00000BF00BF00BF00BF00BF00BF00BF00BF9C
:10BCB00000BF00BF00BF00BF00BF00BF00BF00BF8C
:10BCC00000BF0138C3D17047942600200024F4003F
:10BCD00070B50F4C0025207808B1852516E00021AD
:10BCE000A16061602161E1604FF0E020D0F80001C7
:10BCF000012610F0010F03D10721002000F022F8E7
:10BD000001F054FB08B9034806602670284670BD50
:10BD1000D82A00201805004008B500208DF8000042
:10BD20006846FDF71FFF0648C168491EC160C0682C
:10BD300008B9FFF7F1FA9DF80000FDF737FF08BDDD
:10BD4000D82A00204907090E002806DA00F00F0261
:10BD500002F1E02282F8141D03E000F1E02282F8F3
:10BD6000001400F01F02012191404009800000F101
:10BD7000E020C0F88012C0F80011704710B5FFF73E
:10BD80000FF8602101EB80000149C0B2084410BDEA
:10BD9000006000402DE9F0418846054601F036FC80
:10BDA000234E002828461AD0FEF7FAFF304490F8B8
:10BDB00048008009032802D001280ED007E04FF088
:10BDC000A040D0F81005E84010F0010F05D0032185
:10BDD0002846BDE8F04100F085BD0221F8E701F0FA
:10BDE00021FC002822D02846FEF7DAFF04464FF453
:10BDF000807000EB84000F4F81B207EB8400D0F815
:10BE0000102542F00102C0F81025084600F0A8FDF8
:10BE1000B8F1000F0AD02846FEF7C2FF56F82000FE
:10BE2000002803D00120A040C7F80403BDE8F0813A
:10BE3000EC2A0020006000402DE9FC41DFF8A480DE
:10BE4000044608EB0400002790F930001346C017A1
:10BE50000E46401C01D0082741E0F27819462046E2
:10BE6000FEF77AFF0546401C38D0B07850B14FF04D
:10BE7000A04000EB8400D0F8001721F00201C0F8C8
:10BE8000001707E000217378204600910A460191CF
:10BE900000F0F2FCF078C0B11348317800EB850077
:10BEA000D0F81025114B1A40C0F810254FF4F85265
:10BEB0004FF4403302EA042203EA01410A43D0F876
:10BEC00010150A43C0F8102509E008EB0500327888
:10BED00010F8481F41EA8211017000E0042738463B
:10BEE000BDE8FC81EC2A002000600040FFE0FCFF80
:10BEF0004FF0A041D1F81015C14011F0010000D061
:10BF00000120704770B5144D95F8540008B1082011
:10BF100070BD0020411E2A18401CC0B282F83010AB
:10BF20002028F8D300242046FEF708FF641CE4B262
:10BF30000C2CF8D307210620FFF704FF4FF4BE7046
:10BF400000F00EFD05494FF00040C1F80403012048
:10BF500085F85400002070BDEC2A002000600040ED
:10BF6000034890F85400002800D0012070470000DA
:10BF7000EC2A00202DE9FC41044629480F462044C4
:10BF8000002590F93010491C01D0082541E0B9780E
:10BF9000002651B3012200212046FEF7DDFE411CA0
:10BFA00021D083001F483A7818447978D0F81035AA
:10BFB000DFF874C003EA0C03C0F81035D0F8103570
:10BFC0004FF4F85C0CEA042C43EA0C034FF4403CB9
:10BFD0000CEA02424FF4801C0CEA01510A4313435D
:10BFE000C0F8103504E0042513E0FE2180F830107D
:10BFF0007A780120A0404FF0A041012A0CD0C1F86E
:10C000000C0501222046009600231146019600F0FF
:10C0100033FC2846BDE8FC81C1F80805F1E70000C3
:10C02000EC2A002000600040FFE0ECFF06490844D5
:10C0300090F93000810005480844D0F8101521F02F
:10C040000301C0F810157047EC2A00200060004082
:10C050000649084490F93000810005480844D0F8AA
:10C06000101541F00301C0F810157047EC2A0020AC
:10C070000060004001B10121064A104490F93000EF
:10C08000820005481044D0F8102561F31452C0F81E
:10C0900010257047EC2A00200060004010B50446CF
:10C0A00001F0C0FA70B12046FEF77AFEC0B2FEF78A
:10C0B00045FE2046FEF774FE074A002102EB800091
:10C0C000C0F810150549FF20214481F830002046B2
:10C0D000BDE8104000F0E2BB00600040EC2A002008
:10C0E00010B5FEF75DFE302101EB80000149C0B2C2
:10C0F000084410BD006000400121B1EB507F01D128
:10C1000001207047002070472DE9F84F0427174E93
:10C1100000248246A1464FF0010800BF8DF8009030
:10C120006846FDF71FFD08FA04F5354203D02046A6
:10C13000FFF788F860B19DF80000FDF737FD27B1E3
:10C1400004F10104AE43E4B2E8D13846BDE8F88F0B
:10C15000074908FA04F000274A68104348608AF843
:10C1600000409DF80000FDF721FDEEE7FFFF010014
:10C17000E82500202DE9F04114460D00074612D0B5
:10C180008CB10026FFF791F878B13846FFF75AF8DE
:10C1900068B1084800EBC700C0F81055C0F8144556
:10C1A0003046BDE8F0810E20FBE70726F8E70826B9
:10C1B000F6E7000000F0014070B505460024FFF7E7
:10C1C0004DF868B12846FFF770F818B12846FFF718
:10C1D00039F838B104490120A8400860204670BDF4
:10C1E0000724FBE70824F9E708F5014070B5054688
:10C1F0000024FFF733F868B12846FFF756F818B166
:10C200002846FFF71FF838B104490120A84008600C
:10C21000204670BD0724FBE70824F9E704F5014038
:10C22000F8B504460026FFF740F898B10A48012502
:10C23000A540056000208DF800006846FDF792FCDF
:10C2400006484168A94341609DF80000FDF7AEFC37
:10C250003046F8BD0726FBE708F50140E825002039
:10C260000448017809B18520704701210170002040
:10C2700070470000E825002000680121C160704778
:10C2800030B54FF4803405688C4013B1C5F80443D1
:10C2900001E0C5F80843006800EB8100C0F84025C4
:10C2A00030BD02684FF4A07000EB810080B21044F2
:10C2B000704702684FF480308840C2F80803704726
:10C2C00018B54FF4A07202EB8102036892B2002409
:10C2D0009C509A58009202684FF480308840C2F80F
:10C2E000040318BD0268012111610079034A00EBC3
:10C2F000400002EB8000017270470000602B0020BC
:10C30000016801220A600079034A00EB400002EB59
:10C310008000022101727047602B0020F0B4046895
:10C32000049E40F20115D4F800728D40AF43C4F86A
:10C3300000720468D4F800521D43C4F8005233461A
:10C34000F0BCFFF79DBF0000F8B504460D4600792C
:10C35000204900EB400001EB8006307A08B108204C
:10C36000F8BD3AB1326068687060002003464FF44F
:10C37000A07709E00720F8BD226807EB8001535041
:10C380005158401CC0B2009161798142F4D82068B4
:10C39000E978000B40B2FFF7D5FC20686978D0F847
:10C3A000042561F30102C0F804252068A978D0F8BB
:10C3B000082561F30102C0F8082520682978D0F823
:10C3C000102561F30302C0F810250120307200200F
:10C3D000F8BD0000602B002030B503460068012145
:10C3E000000B40B200F01F0291404009800000F1B4
:10C3F000E020C0F8801119684FF0FF30D1F800221A
:10C400000024C1F800421968C1F808031879094DE1
:10C4100000EB400005EB8000007A022802D11846AC
:10C42000FFF760FF187900EB400005EB8000047215
:10C4300030BD0000602B00202DE9F0470446007954
:10C44000254FC0EBC00007EB800590460E4608461E
:10C45000FFF752FE30B1204600F040F820B1112025
:10C46000BDE8F0871020FBE785F816804FF0000844
:10C47000AE60A5F8148020794FF49079C0EBC0002D
:10C4800007EB800546464946206801F014F84FF452
:10C49000AC773946206801F00EF82068A97DAA68BB
:10C4A000C0F84425C0F848152068012181606868FB
:10C4B00080B9CA46B9465146206800F0F7FF0746E2
:10C4C0004946206800F0F2FF0743F4D000B10F2680
:10C4D00085F816803046C3E7442B002000790549D3
:10C4E000C0EBC00001EB8000807D002800D001205F
:10C4F00070470000442B00200FB408B503990029B1
:10C5000004D004AA00926A4600F00FF801B05DF86A
:10C5100014FB10B582680446002A05D0D4E9040350
:10C52000216898470020A06010BD2DE9FC47914686
:10C530000C00804676D014F8011B39B125290ED0A5
:10C540004046FEF7DDFB20780028F4D198F80C0077
:10C55000002867D04046BDE8FC47FFF7DABF00205F
:10C56000012221782B291BD02D2902D0302908D176
:10C5700002E040F0010001E040F00200641C002AEB
:10C58000EFD100252A290ED02178A1F130020A2A04
:10C5900011D205EB850201EB4205641C303DF1E749
:10C5A00040F00400EAE7D9F800100B1DC9F800308C
:10C5B0000968641C0D44217800232E290BD114F83E
:10C5C000011FA1F130020A2A05D203EB830201EB1D
:10C5D0004203303BF3E76C290DD068290BD0692961
:10C5E00021D00BDC252918D0582931D063290ED051
:10C5F000642915D117E014F8011FECE7702969D000
:10C60000732932D075291BD0782909D120E0D9F8B7
:10C610000000011DC9F8001001784046FEF770FBCC
:10C62000641C90E76CE0D9F800100A1DC9F80020DE
:10C630000968CDE900500A224046FEF78FFDEFE77A
:10C64000D9F800100A1DC9F8002009680A2206E07E
:10C65000D9F800100A1DC9F8002009681022CDE998
:10C660000050404601F0C4FDDAE7D9F80010002779
:10C670000A1DC9F800200E68C00705D112E0404627
:10C68000761C7F1CFEF73CFB31780029F7D104E0D3
:10C69000202140466D1EFEF733FBBD42C0D9002D60
:10C6A000F6D1BDE74EB13046FBF720FF074604E068
:10C6B000202140466D1EFEF723FBBD4206D9002D0A
:10C6C000F6D103E04046761CFEF71AFB31780029CC
:10C6D000F8D1A5E7D9F80000011DC9F800100568D8
:10C6E00030214046FEF70CFB78214046FEF708FB60
:10C6F00008200021CDE90001034610222946B0E7B9
:10C70000BDE8FC872DE9F04128B1016819B1C9697C
:10C71000BDE8F04108470D4D0D480024461B142785
:10C720000DE000BF04EB840005EB8000016829B137
:10C73000C969884710B10120BDE8F081641CB6FBCF
:10C74000F7F0A042EED80020F6E70000000000005D
:10C7500000000000044801214174007A08B1002063
:10C7600070470120704700008C2D0020012801D067
:10C77000032808D10449002201284A7400D000206F
:10C78000087401F0ABB870478C2D002070B5254CB3
:10C790000246207A012837D0022841D122480023BE
:10C7A000022A006802D0032A2ED11BE0E36001793F
:10C7B00011B1012928D10DE0D0E90565711B4FF4B5
:10C7C0008056B14200D33146294481614569A9426E
:10C7D0000ED019E00169491C01614269914213D1EF
:10C7E000237217E0E168491CE16008290CD9E36075
:10C7F0002372022A0ED00D21FEF7FEFB0B480A49D8
:10C80000091D0068FFF729F8607C28B1BDE8704079
:10C8100000F0D2BD0021EFE7BDE8704001F05EB846
:10C8200070BD00008C2D002028260020B0E40100FF
:10C8300070B541EA4201DDE904564FF0A04441EAF7
:10C84000830141EA052104EB800041EA0641C0F87A
:10C85000001770BD70B541EA4201DDE904564FF0A2
:10C86000A04441EA830141EA052104EB800041EA4A
:10C870000641C0F8001770BD70B541EA4201DDE91C
:10C8800004564FF0A04441EA830141EA052104EB3C
:10C89000800041EA0641C0F8001770BD1CB50021B8
:10C8A00000910B4601220191FFF7E6FF1CBD1CB56C
:10C8B000002100910B46012201911146FFF7B8FFBC
:10C8C0001CBD4FF0A04202EB8000D0F8002722F4FC
:10C8D0004032C0F80027D0F8002742EA0141C0F8F2
:10C8E000001770474FF0A04202EB8000D0F80027FD
:10C8F00022F44032C0F80027D0F8002742EA014174
:10C90000C0F8001770474FF0A04201218140C2F8E3
:10C910000C1570474FF0A04201218140C2F8081564
:10C92000704701224FF0A043824011B1C3F808259F
:10C930007047C3F80C25704718B5084B6C46014486
:10C940001B68009306E000BF54F82030D3F8103580
:10C95000401C08C28142F7D818BD000094E40100D1
:10C96000034908B50844002101600068009008BD33
:10C970000060004002494058012800D00020704764
:10C980000060004030B5124B01460020D3F810443F
:10C99000224609E0157A854205D1401C0A28F7DBBA
:10C9A0004FF0FF3030BD5268002AF3D1421CF9D05D
:10C9B0000872D3F810242AB152684A60D3F81024C0
:10C9C000516030BD0022C3F810144A6030BD000031
:10C9D000C82E00207047FCF7C3B8704708B5034A5B
:10C9E00000924023024A00F005F808BD3DDC01003A
:10C9F000C82D0020F0B595B01C4615460F460846D8
:10CA00001A9E00F0E7FA182109A8FBF764FD0E96BC
:10CA1000CDE909540023082203A9384600F0F4FAAE
:10CA2000059806900498ADF81C0000208DF82000B1
:10CA30000398082600F00300012802D002281DD028
:10CA40003CE003983346850AC0F3C2008DF81E000F
:10CA500003980FA9C0F380008DF81F000398C0F35E
:10CA60008314A200384600F0CFFA09A8009006AB64
:10CA700022460FA9284600F009FA1FE00398840D0A
:10CA8000C0F3C2008DF81E000398C0F380008DF83B
:10CA90001F00082C01D2254600E0082533462A460F
:10CAA0000FA9384600F0B0FA2E44641B09AB06AA61
:10CAB00029460FA800F03AF9002CEAD1384600F0D8
:10CAC00092FA15B0F0BD00000A4A012902EBC0003D
:10CAD00007D0022907D0032907D0042907D0002056
:10CAE00070470220704704207047007970474079F2
:10CAF0007047000084ED010010B5FFF76CFF0421C2
:10CB00000348FFF73FFF02490120487210BD0000B3
:10CB10003C2600202DE9F04F8DB0FEF701F918B149
:10CB200000200DB0BDE8F08F74480021C0F8181443
:10CB3000BFF34F8FD0E9014604EA060100EB810103
:10CB40004FF000090AE000BFC1F3891202EB9151D6
:10CB5000641C0C4404EA060100EB8101C9688A07E1
:10CB6000F2D0002103AA804604EA060008EB800008
:10CB7000641CC06842F82100491C43460229F3D3D3
:10CB8000039800F00300022806D0012803984FD034
:10CB9000C04380077ED0ACE003985022810D8A46C6
:10CBA000B2EB905F00D850210D4665F39F50039083
:10CBB0000831534800F0C5F907006CD000F00AFABC
:10CBC0004B46082203A9384600F024FA04EA06017D
:10CBD000701A8000001D09F1080B854221D9474ECB
:10CBE0000C3630B1C2B208EB8101281A91460C31E3
:10CBF00004E03146EAB2002691463046C5B25B46B3
:10CC0000384600F007FA0BEB09032EB12A463146ED
:10CC10004FEA070000F0FEF90AF1030004EB90046C
:10CC20003BE008EB81015B462A4638460C31F1E7D0
:10CC3000C0F38310062800D30620039960F38911FE
:10CC4000C1F38310801C039181002D4800F079F915
:10CC500007004ED000F0BEF94B46082203A9384623
:10CC600000F0D8F909F1080900250DE004EA0600F2
:10CC700008EB80014B46042238460C31641C00F05E
:10CC8000C9F909F104096D1C0398C0F38310A84287
:10CC9000ECD801E00BE02CE05FB3D8F81054D8F8E2
:10CCA0001804464690B1384600F09DF921E0D3F8CB
:10CCB000180400283FF435AF1BE0687A012804D13E
:10CCC000296828460A68394690476D68002DF4D1D6
:10CCD000384600F088F900208DF800006846FCF71F
:10CCE00041FFD6F8180400B974609DF80000FCF705
:10CCF0005DFFFEF715F880F0010012E7C82E002056
:10CD0000DCE5010000231A4601F050B808B5012304
:10CD100000926A4601F04AF808BD1CB5CDE900232F
:10CD200002236A4601F042F81CBD00002DE9F047DD
:10CD30000E4680461C46924608293ED894F80C9030
:10CD4000002020731946104600F096FC0025B542DD
:10CD500006D218F805201AA12046FFF7CDFB03E004
:10CD600019A12046FFF7C8FB6D1C082DEFD317A1B2
:10CD70002046FFF7C1FB0025B54210D218F8057018
:10CD8000FBF78CFB0068C05D10F03E0F01D03A4607
:10CD900000E02E220EA12046FFF7AEFB03E00DA11E
:10CDA0002046FFF7A9FB6D1C082DE5D30122214683
:10CDB000504600F043FC84F80C90BDE8F08700007A
:10CDC0002025303278000000202020007C00000068
:10CDD0002563000020000000114810B5FF2181608C
:10CDE000002101604160C0F81814C0F8141480F8E4
:10CDF0001C140C4800F0F5F800280FD10A480B4924
:10CE00000B4B401AC108002005E000BF00EB4002B8
:10CE100023F82200401C8842F8D3002010BD0000F7
:10CE2000C82E0020DCE50100ECED010084ED0100DE
:10CE30009826002002480349401AC00870470000A5
:10CE4000ECED010084ED010013B56846FEF78AFCA5
:10CE500008B100201CBD0248009950F831001CBDEB
:10CE600084ED010070B508480125D0F8104480F821
:10CE70001C5405E06572216820464968884764684B
:10CE8000002CF7D170BD0000C82E00202DE9FF470F
:10CE900081460C9D00200C462F7B28739846164631
:10CEA0002946184600F0E8FB072E42D2DFE806F0DC
:10CEB00004090F161F2A360049462846FFF71CFBB7
:10CEC00037E0494628462268FFF716FB31E0D4E9EF
:10CED000002349462846FFF70FFB2AE0A068009090
:10CEE000D4E9002349462846FFF706FB21E0D4E9B0
:10CEF0000201CDE90001D4E9002349462846FFF7A5
:10CF0000FBFA16E004F1080007C88DE80700D4E931
:10CF1000002349462846FFF7EFFA0AE004F108002B
:10CF20000FC88DE80F00D4E9002349462846FFF7D3
:10CF3000E3FA00222946404600F080FB2F73BDE84B
:10CF4000FF872DE9F041058A80462D1F4819C01C36
:10CF5000B0FBF5F0C6B24046FEF79CFC040019D0C9
:10CF60000020207101206071E58000272546761E93
:10CF7000C4F800800BE04046FEF78CFC60B161799C
:10CF8000491C6171286005467F1CC0F80080B742CB
:10CF9000F1D32046BDE8F081204600F002F80020E1
:10CFA000F8E72DE9F041457901466B1E002201E0CA
:10CFB0000968521C9A42FBD30F680146002605E01F
:10CFC00038460C68FEF788FC2146761CAE42F7D343
:10CFD000BDE8F08108B501216A46001DFBF7B1F9F3
:10CFE00008BDFEF791BC38B50446001D01216A4614
:10CFF000FBF7B4F9009810F0FF0F04D12046BDE80C
:10D000003840FFF7CEBF38BD38B501240094FEF795
:10D010006DFB38BD38B500240094FEF767FB38BDC2
:10D02000024A1060101D0160704700002C7600401D
:10D0300002494058002800D001207047007000408D
:10D04000034908B50844002202600068009008BD4A
:10D050000070004020B1034909680160002070475A
:10D060000E20704778E601002DE9FE4306460D4686
:10D070000846FFF7EFFF00287ED18046CDF80080FC
:10D08000CDF80480012403208DF80060ADF8040081
:10D09000CDF808808DF80240694620202A6869DFB3
:10D0A0003E4F40B100F0F8F9024638883C4904EBA5
:10D0B0000040FFF72BFECDF80080CDF80480CDF8BE
:10D0C00008808DF80040694640202A6869DF40B139
:10D0D00000F0E2F902463888324904EB0040FFF7DD
:10D0E00015FECDF800808DF80060F720ADF8020045
:10D0F000CDF80480CDF80880694623202A6869DFCE
:10D1000040B100F0C9F902463888274904EB0040D5
:10D11000FFF7FCFDCDF80080CDF80480CDF8088045
:10D120008DF800404646694601202A6869DF40B113
:10D1300000F0B2F9024638881C4904EB0040FFF7C2
:10D14000E5FD4FF4B0600090019602966946A1207B
:10D150002A6869DF48B100F09FF93988024604EB7C
:10D16000014313491846FFF7D1FD00960196029638
:10D170008DF80060694600E00DE0A0202A6869DFB4
:10D1800040B100F089F9024638880A4904EB0040B2
:10D19000FFF7BCFD0020BDE8FE8300001C27002037
:10D1A00018EC010060EC0100ACEC010078EB010030
:10D1B000C4EB010024EB01002DE9F0410446D0F856
:10D1C00000E060DF2368144D0646734515D02888BB
:10D1D000022707EB0040724610A1FFF79EFDF806FC
:10D1E000D0F80C012168800200F10050421A288812
:10D1F00016A107EB0040FFF789FD56B1304600F05D
:10D200004BF902462888012101EB004018A1FFF7E5
:10D210007DFD3046BDE8F0811C27002052414D20A5
:10D2200073746172747320617420307825782C20B7
:10D2300063616E2062652061646A75737465642041
:10D24000746F20307825782E0000000052414D2068
:10D2500073697A652063616E2062652061646A7516
:10D260007374656420746F20307825782E00000078
:10D2700073645F626C655F656E61626C652829200E
:10D2800072657475726E65642025732E000000004F
:10D2900030B5EBB04FF4CE75ADF8A8516AA9684629
:10D2A00061DF30B1052816D06BB0BDE83040FCF727
:10D2B00053B96C46094967A800F0AAF807E000BF17
:10D2C000D0E900212046904767A800F0B8F8699897
:10D2D0000028E1D0F4E76BB030BD00007CE601002F
:10D2E00010B50D4C2078A0B10120A07000F008FC12
:10D2F00011280CD0022000F01BFC11DF002807D100
:10D300002070A07000F00EFD032000F011FC002042
:10D3100010BD082010BD00009026002038B5174C25
:10D32000207808B1082038BD0125A570002000F044
:10D33000E7FB112820D0002000F0FAFB104811492B
:10D3400000680090684610DF0028ECD12570A070BE
:10D3500060700721162000F088FB08B1FCF7FCF88C
:10D360000721152000F081FB08B1FCF7F5F800F06B
:10D37000F5FC012000F0DCFB002038BD90260020E9
:10D3800010E60100E19401000EB50749684600F07F
:10D390003FF805E0D0E900108847684600F04FF8F4
:10D3A00002980028F6D10EBD2CE601000148007855
:10D3B00070470000902600200548817819B1007858
:10D3C00018B1FFF78DBF08207047FFF7A7BF000017
:10D3D000902600201FB5684648DF30B1052814D0DC
:10D3E00004B0BDE81040FCF7B7B8084901A800F048
:10D3F0000FF806E0D0E900210098904701A800F05E
:10D400001EF803980028E6D0F4E71FBD98E6010057
:10D41000016009684160AFF3008010B5D0E90021D8
:10D420005368994201D1002104E0D1E90034A342BC
:10D4300002D01946816010BD08314160F0E7816873
:10D4400000290BD0026892680A44826041684B68E8
:10D450009A4203D108314160FFF7DFBF70470000F7
:10D460000C4A10B502F1F0030EE0991AC91001EB55
:10D47000D171491002EBC1010C68844201D90B46FD
:10D4800002E005D201F108029A42EED3002010BD5D
:10D49000486810BDD4E4010000B5FFF7E1FF0028A3
:10D4A00000D1014800BD0000C0E401004058002840
:10D4B00000D00120704708B500224250405800902B
:10D4C00008BD00002DE9F04105460078002826D16E
:10D4D0000026144F4FF0010812E0A868805DFCF7A9
:10D4E00023FB04000BD0112CF7D03988224608EB1F
:10D4F00001400DA1FFF70AFC2046FCF72DF8761C31
:10D50000A889B042E9D8A989A868084410F8010C94
:10D510000D2804D10A20FCF707FB1128FAD0BDE83A
:10D52000F0810000042700204661696C6564207268
:10D530006563656976696E67204E5553206D657326
:10D54000736167652E204572726F7220307825787E
:10D550002E20000010B550B103280CD10220FDF799
:10D5600063FA002807D0BDE81040FBF7F5BFBDE81F
:10D57000104000F0BDBB10BD0078002807D1044862
:10D580003B21408876DF002801D0FBF7E5BF7047DC
:10D59000B82500207CB506468D88C88805EB450176
:10D5A00006EB4104A41D172800D2172021888142D0
:10D5B00000D8084660800020207121882846ADDF11
:10D5C000020007D00E480121008801EB00400D4900
:10D5D000FFF79CFB6079002810D1F06800280DD07F
:10D5E0000949D1E90201CDE90001ADF80250608896
:10D5F000ADF80400F2686946304690477CBD0000F3
:10D600009826002070E7010064E401000449084402
:10D6100090F93000082801DB012070470020704796
:10D62000EC2A00200449084490F93000082801D26F
:10D630000120704700207047EC2A002010B50C46EE
:10D64000C17949B11AB109A12046FEF755FF20461C
:10D65000BDE81040FEF75DBF007A0028F3D0044813
:10D6600004A102682046FEF747FFECE70D0A000020
:10D670006C2600202573000070B50446C0790D4665
:10D6800000281CD1207A50B1A179A088FFF71CFA9C
:10D690000B4951F820200BA12846FEF72DFFA0884A
:10D6A0000021FFF7D1FB03460549A079143951F851
:10D6B00020202846BDE8704003A1FEF71DBF70BDC5
:10D6C0006C260020257300003C25733E2025733A0C
:10D6D000200000002DE9F05F0668834696F82000E0
:10D6E000FEF79EFD002505EB450800244FF0FF0ADC
:10D6F00006EB880707EB040999F80800FF2803D018
:10D70000FEF78EFD89F808A0641CE4B2022CF1D368
:10D7100056F82800411C05D0FEF7C0FC4FF0FF3141
:10D7200046F8281000206D1CEDB2F872022DDAD3F5
:10D73000DBF80400BDE8F05FFEF74EBE00B585B033
:10D7400014220C496846FAF7ADFE0A4800226946E1
:10D750000838FCF77DF808B1FBF7FEFE05480838ED
:10D76000FCF73AF80348322200210838FBF736FF6D
:10D7700005B000BD1CE401002DE9F04113480D4641
:10D780000127DFF84C80002400EB4506305D28B10E
:10D79000305D401E3055305D70B10027641CE4B22E
:10D7A000022CF3D3002F0ED058F825000221406838
:10D7B000BDE8F041FEF77DBD58F825000068C1695D
:10D7C00028468847EAE7BDE8F081000034260020BB
:10D7D000BC2D00202DE9F04788460546076801EB7F
:10D7E000480007EB8004164697F82000FEF7E4FC9B
:10D7F000DFF8B0904FF0FF0A7EB1B869B04211D89F
:10D8000086B2207AFEF7D8FC94F80900FEF7EEFC09
:10D8100069680A7909F802A040E0607AFEF7CCFC5A
:10D82000207AF3E76268824228D03AB3B24225D91F
:10D83000002303216868FEF723FDA07A00282068F2
:10D8400002D0FEF79BFA01E0FEF74AFC8246032174
:10D850006868FEF726FD014617F8200F5246FEF7CE
:10D8600089FC3878FEF7C2FC69680A7909F80280F9
:10D8700068680D49007941F8206003E069680A7919
:10D8800009F802A00023324641466868FEF7F8FC1A
:10D89000207AFEF7ABFC607AFEF7A8FC6660BDE874
:10D8A000F087000031260020B02D002010B504487C
:10D8B000FBF756FFBDE810400148FCF78FB80000A9
:10D8C00014E4010010B5FFF739FF0348FEF72EF905
:10D8D000BDE81040FFF7EABFA08601002DE9F04146
:10D8E000214C0025214E207A012730B92048311DD6
:10D8F0000068FDF7BDFF306038B10220207231684A
:10D90000087928B101281ED116E06560BDE8F081D4
:10D91000D1E90503C01A4FF48052904200D310465B
:10D92000B7EB900F01D2820800E001220869C968B4
:10D930001844194429DF03E0D1E90301084428DF32
:10D9400038B111280ED003213068FDF755FB257240
:10D95000DBE7207C0028D9D1BDE8F041002102207E
:10D96000FEF714BF2772D1E78C2D00202826002057
:10D97000B0E4010070B5012670044FF0E0210025ED
:10D98000C1F88001084C4010C4F84803C4F80803EB
:10D9900066602F20FEF756F9A660044C2F20A56084
:10D9A000FEF750F9A57070BD00100140042600205C
:10D9B00030B58FB005461C216846FAF78CFD00246F
:10D9C0009DF80000019440F00C008DF800000394D5
:10D9D00004940594069428788DF836000220ADF85A
:10D9E00034000C949DF83000142120F00F00401CEE
:10D9F00020F0F00010308DF830009DF8310020F05C
:10DA00000F00401C20F0F00010308DF831009DF820
:10DA1000320020F00600801C20F0180040F00100C9
:10DA20008DF8320007A8FAF756FD0DA807900CA84C
:10DA300008900120ADF82400F420ADF82640ADF8A0
:10DA40002800688805F10C0307AA6946A2DF0FB019
:10DA500030BD1FB501238DF800308DF808100192FC
:10DA6000D0E90012684690471FBD70B50D460446C8
:10DA7000FBF7B0FC70B12846FBF7BEFC68B1680745
:10DA8000000E002C0CDA04F00F0101F1E02181F806
:10DA9000140D09E042F2010070BD42F2020070BDB7
:10DAA00004F1E02484F80004002070BD38B50021A2
:10DAB000012558B101280ED003280BD107210020E1
:10DAC000FEF740F9BDE83840FEF726B94FF0E020F8
:10DAD000C0F8805138BD8DF800106846FCF742F858
